:020000040800F2
:10000000901900209D010008ED2500080D1C000836
:1000100065250008F9050008C12B00080000000054
:1000200000000000000000000000000005010008C2
:1000300021060008000000004901000835260008DC
:10004000B7010008B7010008B7010008B7010008B0
:10005000B7010008B7010008B7010008B7010008A0
:10006000B7010008B7010008B7010008B701000890
:10007000B7010008B7010008B7010008B701000880
:10008000B7010008B7010008B7010008B701000870
:10009000B7010008B7010008B701000823060008EF
:1000A000B7010008C1260008B7010008B701000821
:1000B000B7010008B7010008CD260008B701000805
:1000C000B7010008B7010008B7010008B701000830
:1000D000B7010008B7010008A92B0008B52B0008DC
:1000E000B7010008B7010008B7010008DFF810D019
:1000F00000F070FA00480047513F0008AFF300805D
:1001000090190020224B19680868B0E8F00F80F3BE
:100110000988BFF36F8F4FF0000080F311884EF015
:100120000D0E70470000000006480068006880F36C
:10013000088862B661B6BFF34F8FBFF36F8F00DFE1
:1001400000BF00BF08ED00E0EFF30980BFF36F8F41
:100150000F4B1A6820E9F00F106008B54FF05000FF
:1001600080F31188BFF34F8FBFF36F8F05F022FA32
:100170004FF0000080F31188BDE808401968086856
:10018000B0E8F00F80F30988BFF36F8F704700BFAE
:1001900078000020EFF30580704700000648804794
:1001A00006480047FEE7FEE7FEE7FEE7FEE7FEE75C
:1001B000FEE7FEE7FEE7FEE7BD260008ED000008CB
:1001C0002DE9F0410024061B254671F1000605DAF1
:1001D00001240027D0EB070067EB0101161E73F125
:1001E000000605DA0027D2EB0702012567EB0303BF
:1001F00000F079F986460E4617469C46AC4204D07C
:100200000025D0EB050E65EB010624B10020D2EBF2
:10021000000760EB030C704631463A466346BDE882
:10022000F081202A04DB203A21FA02F000217047F5
:1002300021FA02F3D040C2F120029140084319464E
:10024000704740EA01039B0703D009E008C9121F69
:1002500008C0042AFAD203E011F8013B00F8013B80
:10026000521EF9D27047D2B201E000F8012B491EAC
:10027000FBD270470022F6E710B513460A46044643
:100280001946FFF7F0FF204610BD30B505462A4657
:100290000B4612F8010B13F8014B08B1A042F8D03D
:1002A0001CB1002802D06D1CF1E7284630BD30B5E6
:1002B00004460020034600E05B1C934203D2E05C4E
:1002C000CD5C401BF8D030BDF0B480EA0102D40F01
:1002D0004200B2EB410F02D20246084611464A00E4
:1002E00042D0C30DDDB2C1F3C752AD1A202D35DAAD
:1002F000C1F3160141F4000204B15242C5F12006D7
:1003000002FA06F12A411044B3EBD05F23D0C4B106
:10031000012DA0EBC35009DCF0BC4FF0004202EA13
:10032000C352DBB200F5000000F026B9400000F136
:10033000807000EBC350A0F1807040EAD17049009A
:1003400009E0490841EAC071A0EBC35000F5000084
:10035000400800EBC350F0BC00F005B96142012237
:1003600002EB4101001BF6E7F0BC704781F0004151
:10037000AAE780F00040A7E780EA010210B502F08A
:100380000043400022D04A001FD0010E01EB126151
:10039000C0F35600C2F3560240F4000042F40002DB
:1003A000A0FB022000047F39140400D0401C50EA56
:1003B000124001D44000491EC2B20C0604EBD0101A
:1003C000401C4008802A02D003E0002010BD20F02D
:1003D0000100002900DA0020184310BD30B480EA83
:1003E000010202F0004530F0004221F0004013D03D
:1003F00090B1C30DD40DC2F31601C0F31600E41A78
:1004000041F4000140F400027D34914201D3641CA8
:1004100000E04900002C02DA30BC002070474FF4A5
:1004200000000023914201D3891A034340084FEA98
:100430004101F7D151B1914202D14FF0004105E0A5
:1004400002D24FF0010101E06FF0010103EBC45053
:10045000284430BC00F087B8420005D0C0F3C75232
:100460005242914201DC0020704700EBC1507047BE
:10047000C10F80EAE0700844CA079623002100F00B
:100480007BB896230022114600F076B800F00042B7
:1004900020F00040C10DC0F3160040F400007F2999
:1004A00001DA00207047962903DCC1F19601C840AB
:1004B00001E096398840002AF4D04042704720F08D
:1004C0000040C10DC0F3160040F400007F2901DA9E
:1004D00000207047962903DCC1F19601C84070479F
:1004E0009639884070472DE9F05F05460020924616
:1004F0009B4688460646814640241BE028464146E6
:1005000047462246FFF78DFE53465A46C01A914190
:1005100010D311461846224600F016F82D1A67EB44
:1005200001084F4622460120002100F00DF817EB8C
:1005300000094E41201EA4F10104DFDC484631468B
:100540002A464346BDE8F09F202A04DB203A00FA01
:1005500002F1002070479140C2F1200320FA03F31A
:100560001943904070470029A8BF7047401C4900BC
:1005700008BF20F00100704710B4B0FA80FC00FA08
:100580000CF050EA010404BF10BC704749B1CCF133
:10059000200421FA04F411FA0CF118BF01212143BF
:1005A0000843A3EB0C01CB1D4FEA00614FEA10207A
:1005B00042BF002010BC704700EBC350104400291C
:1005C000A4BF10BC7047401C490008BF20F00100C8
:1005D00010BC7047064C074D06E0E06840F0010390
:1005E00094E8070098471034AC42F6D3FFF782FD39
:1005F0008C660008AC660008FEE7000010B5064BEC
:10060000002001461A78054C02E02154401CC0B27B
:100610009042FAD3197010BD1001002090110020F3
:100620007047202000F0D6B872B6FEE710B590F8FB
:1006300021100022022905D00421816380F82020A6
:10064000012010BD01680B6823F00E030B600168E8
:100650000B6823F001030B6090F84030C46B01215C
:1006600001FA03F3636080F8211080F8202010461F
:1006700010BD000010B590F821100024022903D00D
:100680000421816301243DE001680A6822F00E0222
:100690000A6001680A6822F001020A601A4A0168C9
:1006A000914201D1012121E0174A1432914201D136
:1006B00010211BE0144A2832914201D1891515E01E
:1006C000114A3C32914201D189140FE00E4A503256
:1006D000914202D14FF4803108E00B4A64329142DA
:1006E00002D14FF4801101E04FF08071064A083AC0
:1006F0005160012180F82110002180F82010416B09
:1007000001B18847204610BD0800024070B504467C
:1007100000F06EF90546601C02D0044800780444DD
:1007200000F066F9401BA042FAD370BD68000020BB
:1007300010B520282FD1184C18482168C1B10129C3
:1007400029D10022102100F04EF915A002F03AFA4A
:1007500001220A21104602F04BFD01220A2102204B
:1007600002F046FD00202060BDE8104001F024BFEB
:100770000122102100F037F90FA002F023FA012224
:100780000021104602F034FD01220021022002F077
:100790002FFD0120206010BD000000200008014056
:1007A00041542B475454533D312C22C0ACBBF8224A
:1007B0002C310D0A0000000041542B475454533D86
:1007C000312C22CEE4BABAB4F3D1A7222C310D0ACF
:1007D00000000000044910B50A68024202D0086017
:1007E000FFF7A6FF10BD0000140401402DE9F84FEB
:1007F000DFF8B8910024A9F1040B23460F2709F173
:10080000040AABF1040EC9E00125A5402A40AA4222
:100810007DD1674ED1F804C0ACEB0608B44532D0A8
:1008200014DCBCF1030F3AD009DCBCF1000F2AD074
:10083000BCF1010F1CD0BCF1020F31D11DE0BCF1A5
:10084000110F17D0BCF1120F2AD119E0B8F5881F8B
:1008500019D006DCB8F5803F15D0B8F5801F1FD140
:1008600011E0B8F5001F0ED0B8F5041F18D10AE04A
:10087000CB6815E0CB681B1D12E0CB6808330FE096
:10088000CB680C330CE08B682BB1012B4FF00803C5
:1008900003D0456104E0042302E0056100E0002389
:1008A000FF2A01D8064601E000F104064FEA84055C
:1008B00001D9A5F12005D6F8008007FA05FC28EA41
:1008C0000C0803FA05F548EA0508C6F800804D68EB
:1008D000ED0062D5374DAE6946F00106AE61AD69F7
:1008E00024F0030605F001050095334D06EB050CD9
:1008F000DCF80850A607360F07FA06F825EA0805BF
:10090000DFF8B880404503D14FF0000817E044E01D
:10091000DFF8AC80404502D14FF001080FE0DFF86E
:10092000A480404502D14FF0020808E0DFF898802B
:10093000404502D14FF0030801E04FF0040808FAE7
:1009400006F848EA0508CCF808804D68D9F8006038
:10095000ED024D4601D5164300E096432E604D68EA
:10096000DAF80060AD02554601D5164300E0964323
:100970002E604D68DBF80060AD035D4601D516437F
:1009800000E096432E604D68DEF80060ED0375468A
:1009900001D5164300E096432E60641C0D682A467C
:1009A000E5407FF431AFBDE8F88F00000804014056
:1009B000000011100010024000000140000801403A
:1009C000000C014000100140001401408068084004
:1009D00000D001207047C26821EA02030A4043EABE
:1009E0000241016170470AB1016170470904FBE7E8
:1009F0000148806870470000680000200248816854
:100A0000027811448160704768000020074810B5E3
:100A1000016841F010010160032000F0A1F80020FE
:100A200000F006F800F04AF8002010BD0020024057
:100A300030B505461C4887B0816941F40061816189
:100A4000806906A900F40060009001A800F030F968
:100A500000F05EF91549164AB0FBF1F11548491E40
:100A60000260416040F2E7320021C0E90321816069
:100A7000816100F049FB040012D10E4800F0B8FB80
:100A800004000DD1192000F03DF8102D07D20022EE
:100A90002946192000F044F80748056000E00124C9
:100AA00007B0204630BD00000010024040420F0059
:100AB000002C0140480400206C0000200F4808B5BD
:100AC000816941F001018161816901F001010091B9
:100AD000C16941F08051C161C069002200F08050BD
:100AE00000900F21901E00F01BF80548416821F08E
:100AF000E06141F00071416008BD0000001002405B
:100B000000000140002809DB00F01F020121914094
:100B10004009800000F1E020C0F80011704700009B
:100B2000F0B40E4B1B680C46C3F30223C3F1070558
:100B3000042D00D90425191D072901D2002300E046
:100B4000DB1E012606FA05F1491E214099409E4010
:100B5000761E16403143F0BC02F05EB80CED00E0AA
:100B6000064900F0070208684FF6FF03184040EA04
:100B70000220034A10430860704700000CED00E0BB
:100B80000000FA052DE9F0470F46050061D0434EFD
:100B9000306800F00700B84209D2306820F0070042
:100BA00038433060306800F00700B84251D12868FF
:100BB0003B4C810712D5400703D5606840F4E060E4
:100BC00060602878000703D5606840F4605060607A
:100BD0006068A96820F0F000084360602878C007CA
:100BE00028D06868012810D02168022810D0890711
:100BF00000292EDA616821F0030101436160FFF7EB
:100C0000F7FE804641F288390DE021688903EFE75D
:100C10008901EDE7FFF7ECFEA0EB0801494502D999
:100C20000320BDE8F0876068696800F00C00B0EB55
:100C3000810FEFD1306800F00700B8420BD930685F
:100C400020F0070038433060306800F00700B842F9
:100C500001D00120E5E72878400705D56068E968FC
:100C600020F4E060084360602878000706D56068DB
:100C7000296920F4605040EAC100606000F058F833
:100C80006168084AC1F30311515CC8400649086015
:100C900006480068FFF7CCFE0020C2E700200240B3
:100CA000001002403E590008740000206C00002033
:100CB0000F2202600C4A536803F003034360536839
:100CC00003F0F0038360536803F4E063C360526889
:100CD0004FF4E06303EAD20202610448006800F0C6
:100CE000070008607047000000100240002002402A
:100CF0000448054900684968044AC1F30221515C6F
:100D0000C840704774000020001002404E5900088F
:100D10000448054900684968044AC1F3C221515C8E
:100D2000C840704774000020001002404E5900086F
:100D30000E4A51680E4801F00C03042B11D0082B09
:100D40000FD10C48C1F38343C903C05C0AD5516875
:100D5000084AC1F34041921E515C054A5043B0FB22
:100D6000F1F070470449484370470000001002400A
:100D700000127A002E59000800093D002DE9F84FB5
:100D8000040070D02078C04DC00749D06868C0F317
:100D90008100012807D06868C0F38100022809D1CA
:100DA0006868C00306D52868800339D560680028C4
:100DB000E7D035E06068B0F5803F0BD010B1B0F5FA
:100DC000A02F11D0286820F480302860286820F4F3
:100DD000802002E0286840F480302860606890B18C
:100DE000FFF706FE06460AE0286840F480202860E7
:100DF000F0E700BFFFF7FCFD801B642873D828686C
:100E00008003F7D50CE0FFF7F3FD064605E000BFD1
:100E1000FFF7EEFD801B6428F0D828688003F7D424
:100E200020789A4E80074FF001094FF0000839D51D
:100E3000686810F00C0F07D06868C0F381000228C2
:100E400009D16868C00306D42868800714D52069D2
:100E5000012808D110E02069B0B1C6F80090FFF772
:100E6000C7FD074605E00AE1FFF7C2FDC01B0228E7
:100E7000C4D828688007F7D52868616920F0F80091
:100E800040EAC10028600DE0C6F80080FFF7B0FD21
:100E9000074604E0FFF7ACFDC01B022823D82868F2
:100EA0008007F7D4207800072CD57948A169D9B1FB
:100EB000C0F80090FFF79CFD074604E0FFF798FD9F
:100EC000C01B02280FD8686A8007F7D571484FF415
:100ED000FA510068B0FBF1F0009000BF0098411E8D
:100EE0000091FAD20EE080E0C0F80080FFF780FDAC
:100EF000074604E0FFF77CFDC01B022875D8686A2E
:100F00008007F7D42078400760D5E8690027C00043
:100F100008D4E86940F08050E861E869012700F0F2
:100F2000805000905C480168C90513D4016883466D
:100F300041F480710160FFF75BFD824606E000BF6F
:100F4000FFF756FDA0EB0A0064284ED8DBF800003E
:100F5000C005F5D5E06801280AD008B1052813D0EE
:100F6000286A20F001002862286A20F0040002E0CC
:100F7000286A40F001002862E06841F2883B98B19D
:100F8000FFF736FD82460BE0286A40F00400286235
:100F9000EEE700BFFFF72CFDA0EB0A0159455AD838
:100FA000286A8007F6D50CE0FFF722FD824605E0AF
:100FB000FFF71EFDA0EB0A0159454CD8286A8007AF
:100FC000F6D41FB1E86920F08050E861E06988B389
:100FD0006968C1F38101022944D00228C6F8608003
:100FE00004D0FFF705FD044638E034E0FFF700FDCC
:100FF000074604E0FFF7FCFCC01B02282BD828683A
:101000008001F7D4206AB0F5803F05D16868A168F7
:1010100020F4003008436860D4E908010843696897
:1010200021F4741108436860C6F86090FFF7E0FC93
:10103000044606E025E000BFFFF7DAFC001B0228AB
:1010400009D828688001F7D51BE000BFFFF7D0FC66
:10105000001B022802D90320BDE8F88F2868800110
:10106000F4D40EE00128F7D06868226A00F48031D9
:10107000914204D1616A00F47010884201D00120CD
:10108000EAE70020E8E700000010024000004242CA
:101090008004424274000020007000407047704796
:1010A00070B590F83C20012A26D0012480F83C40FD
:1010B000022280F83D2003685A689D6822F070067D
:1010C0000A6832435A600D4B02689A4208D0B2F166
:1010D000804F05D00A4B9A4202D00A4B9A4204D163
:1010E000496825F080031943916080F83D40002154
:1010F00080F83C10084670BD022070BD002C0140F5
:10110000000400400008004010B5040003D094F82B
:101110003D0010B107E0012010BD002084F83C0024
:10112000204600F01FF8022084F83D00211D2068B1
:1011300001F0DAFA012084F8460084F83E0084F8D1
:101140003F0084F8400084F8410084F8420084F8AD
:10115000430084F8440084F8450084F83D000020F2
:1011600010BD000008B500680B49884212D10B4839
:10117000C16941F00401C161C069002200F00400AE
:10118000009005211E20FFF7CBFCBDE808401E2083
:10119000FFF7B8BC08BD0000000800400010024086
:1011A00090F83D10012901D001207047022180F8FC
:1011B0003D1000680B49884208D0B0F1804F05D03F
:1011C0000949884202D00949884204D1816801F066
:1011D0000701062903D0016841F0010101600020E8
:1011E00070470000002C014000040040000800404F
:1011F00090F83D10012901D001207047022180F8AC
:101200003D100168CA6842F00102CA6000680B49DB
:10121000884208D0B0F1804F05D00949884202D0F9
:101220000849884204D1816801F00701062903D0EA
:10123000016841F00101016000207047002C01406D
:10124000000400400008004001680A6A41F21113DE
:101250001A4207D10A6A9B101A4203D10A6822F087
:1012600001020A60012180F83D100020704770B52E
:10127000044690F83C000025012817D0012684F888
:101280003C60022084F83D002068826822F07702EA
:1012900022F47F4282600868502838D00DDC202874
:1012A0004FD005DC90B3102811D14AE0022070BD68
:1012B000302846D040280AD13BE060282FD0702843
:1012C0000DD0B0F5805F03D0B0F5005F12D00125DE
:1012D00084F83D60002084F83C00284670BDCB684F
:1012E000D1E90121206801F042FA2068816841F0CB
:1012F000770109E0CB68D1E90121206801F037FAD4
:101300002068816841F480418160E1E719E0CA68A2
:101310004968206801F0E0FA5021206806E0CA68B8
:101320004968206801F0E9FA6021206801F029FA93
:10133000CEE7CA684968206801F0CEFA40212068EB
:10134000F4E7226801461046F0E7704770B504469E
:10135000006801694FF00005C943890715D4C168C9
:10136000C943890711D4E91E016101202077206853
:1013700080698007204602D0FFF7E7FF04E000F015
:10138000E8F8204600F09AF9257720680169C943FA
:10139000490717D4C168C943490713D46FF0040142
:1013A0000161022020772068806910F4407F204688
:1013B00002D0FFF7CAFF04E000F0CBF8204600F0AF
:1013C0007DF9257720680169C943090716D4C168EA
:1013D000C943090712D46FF0080101610420207786
:1013E0002068C0698007204602D0FFF7AEFF04E006
:1013F00000F0AFF8204600F061F925772068016918
:10140000C943C90617D4C168C943C90613D46FF0CC
:1014100010010161082020772068C06910F4407F26
:10142000204602D0FFF791FF04E000F092F820463A
:1014300000F044F9257720680169C943C90708D13C
:10144000C168C943C90704D1891E0161204600F063
:1014500037F920680169C943090609D4C168C9433D
:10146000090605D46FF0800101612046FFF716FEE2
:1014700020680169C943490609D4C168C9434906BE
:1014800005D46FF040010161204600F039F9206871
:101490000169C94389060BD4C168C943890607D4C9
:1014A0006FF0200101612046BDE87040FFF7F7BDF5
:1014B00070BD000000B585B000210091019102913E
:1014C000039100680B49884211D10B48816941F0B2
:1014D000080181618069694600F008000490C0201D
:1014E00000900220019003900448FFF77FF905B0B7
:1014F00000BD00000008004000100240000C014048
:1015000070B5044690F83C00002501280FD001205A
:1015100084F83C006AB1042A0FD0082A11D00C2AA2
:1015200013D00125002084F83C00284670BD02201D
:1015300070BD206801F02EF9F4E7206801F052F93F
:10154000F0E7206801F07AF9ECE7206801F0A2F9F1
:10155000E8E7704710B5040003D094F83D0010B1DF
:1015600007E0012010BD002084F83C00204600F078
:101570001EF8022084F83D00211D206801F0B4F817
:10158000012084F8460084F83E0084F83F0084F887
:10159000400084F8410084F8420084F8430084F855
:1015A000440084F8450084F83D00002010BD7047D9
:1015B00010B50446022249B104290ED0082913D0DF
:1015C00094F84100012816D0012010BD94F83E0087
:1015D0000128F9D184F83E200FE094F83F0001285B
:1015E000F2D184F83F2008E094F840000128EBD1C4
:1015F00084F8402001E084F841200122206801F0B5
:10160000A9F80F492068884203D1426C42F4004295
:1016100042642068884208D0B0F1804F05D0094963
:10162000884202D00849884204D1816801F007014C
:10163000062903D0016841F001010160002010BDBE
:10164000002C0140000400400008004030B5044672
:101650000D460068002201F07DF8174B41F2111190
:1016600020688A10984209D1036A0B4206D1036AA6
:10167000134203D1436C23F4004343642068036A9C
:101680000B4206D1016A114203D1016821F0010128
:10169000016001203DB1042D08D0082D09D084F847
:1016A0004100002030BD84F83E00FAE784F83F0096
:1016B000F7E784F84000F4E7002C01407047000091
:1016C00010B500680A49884203D1BDE81040FFF711
:1016D00095B90849884209D1074C2068012805D1ED
:1016E0000648006800F070FF0020206010BD000078
:1016F000002C0140000800400800002004000020E9
:101700007047704770470000F8B5016804460868E4
:10171000CA684B6910F00F0F4FF0000559D003F065
:10172000010602F49077374365D0C10705D0D10593
:1017300003D5616C41F001016164410705D5D9070A
:1017400003D0616C41F002016164810705D5D907BE
:1017500003D0616C41F004016164010707D502F018
:101760002001314303D0616C41F008016164616C78
:1017700000293AD0800604D5900602D5204601F013
:10178000FDF820684069616CC0F38010090700D43F
:1017900060B3204601F0CBF820684069400621D5AF
:1017A0002068143050E8001F21F0400140E800128A
:1017B000002AF5D1E06BA8B16D494163E06BFEF7FB
:1017C00059FF002811D0E06B416B01B0BDE8F0403B
:1017D000084783060FD593060DD52046BDE8F8408F
:1017E00001F0CCB82046FFF78DFFF8BD2046FFF78B
:1017F00089FF6564F8BD266B2023012E7CD1C606C7
:101800007AD5D60678D508684868009048694FF0C0
:101810000206400640D5E16B086840680004000CF1
:10182000E8D0A28D8242E5D9E085886920282DD0B4
:1018300020680C3050E8001F21F4807140E800124D
:10184000002AF5D12068143050E8001F21F0010172
:1018500040E80012002AF5D12068143050E8001F3B
:1018600021F0400140E80012002AF5D184F842300E
:10187000256320680C3050E8001F21F0100140E87B
:101880000012002AF5D1E06BFEF7D0FE6663A08D52
:10189000E18D401A81B22AE0A08DE18D401A81B21B
:1018A000E08D0028A6D00029A4D022680C3252E88E
:1018B000000F20F4907042E80007002FF5D1206857
:1018C000143050E8002F22F0010240E80027002FDA
:1018D000F5D184F84230256320680C3050E8002FA1
:1018E00022F0100240E80023002BF5D16663204669
:1018F000FFF707FFF8BDFFE705062BD5150629D52D
:1019000094F841002128F5D1A068B0F5805F01D19D
:101910002069B0B1206A411C2162216800784860CA
:10192000E08C401E0004000CE084E3D12068C16814
:1019300021F08001C1602068C16841F04001C160B0
:10194000D8E7206A0088C0F308004860206A801C3D
:101950002062E5E74006CDD55006CBD5CA682046C3
:1019600022F04002CA6084F8413000F04EF9C1E72D
:101970001F29000870B5040004D094F84100002528
:1019800010B106E0012070BD84F84050204600F000
:1019900023F8242084F841002068C16821F4005114
:1019A000C160204601F04CF82068016921F49041A3
:1019B00001612068416921F02A0141612068C16804
:1019C00041F40051C1606564202084F8410084F82E
:1019D00042006563002070BD30B585B000240094DE
:1019E0000194029403942E4D03682E480221032291
:1019F000AB4227D1C36943F40033C361C36903F425
:101A000000330493836943F0040383618069264DA6
:101A100000F0040004900420CDE90001039269461F
:101A20002846FEF7E3FE0820CDE900046946284673
:101A30000294FEF7DBFE002205212620FFF770F856
:101A4000262029E0194DAB4228D1C36943F48023F5
:101A5000C361C36903F480230493836943F00803DB
:101A600083618069039200F0080004902815CDE995
:101A700000010F4D69462846FEF7B8FEE814CDE98F
:101A80000004694628460294FEF7B0FE00220521B4
:101A90002720FFF745F82720FFF734F805B030BDC1
:101AA000004400400010024000080140004800408F
:101AB000000C014090F84230202B01D002207047EA
:101AC00021B11AB10023036301F016B80120704759
:101AD00070B5044600681E4988420CD11D481E4B53
:101AE00002781E4801785A54491C01700122194994
:101AF0001B48FFF7DFFF1B492068884227D11A4C9B
:101B00001A4D217811B1012908D015E001220A21CE
:101B1000104601F06DFB01220A2106E0012200219E
:101B2000104601F065FB01220021022001F060FB5C
:101B300010212846FEF74FFF6068002807D1BDE856
:101B400070400748012208494838FFF7B3BF70BD0D
:101B500000480040110100209011002010010020D9
:101B60000004002000440040600000200008014004
:101B70002DE9F843044690F841001F4616460D46ED
:101B8000202802D00220BDE8F8837DB176B1002084
:101B90006064212084F84100FEF72AFFA684804675
:101BA000E684A068B0F5805F02D003E00120EAE798
:101BB000206910B12E4600250EE000260CE08021A1
:101BC000204600F0B4FFA0B9AEB116F8010B2168B1
:101BD0004860E08C401EE084E08C43464FF00002F9
:101BE00000970028EBD14FF04001204600F09FFF06
:101BF00030B10320C7E735F8020BC0F30800E6E771
:101C0000202084F841000020BDE77047FEE7000077
:101C100070B5104D4FF40074002221462846FEF79F
:101C2000E2FE00F019F80122160231462846FEF7BE
:101C3000DAFE00F011F8002231462846FEF7D3FE06
:101C400000F00AF821462846BDE870400122FEF760
:101C5000CABE0000000C01400020401CC0B20A288F
:101C6000FBD370470C4800B5816985B041F008018D
:101C700081618069694600F0080004904FF440706B
:101C8000009003200390112001900448FEF7AEFD60
:101C900000F0AAF805B000BD00100240000C0140A1
:101CA00070B50C4C012251022046FEF79CFEFFF756
:101CB000D3FF0122150229462046FEF794FEFFF7C6
:101CC000CBFF002229462046FEF78DFEBDE870407E
:101CD000FFF7C2BF000C01402DE9F0470024164E6B
:101CE000804625464FF400794FF480776006040E55
:101CF000012239463046FEF776FEFFF7ADFF494632
:101D00003046FEF763FE08B1641CE4B20022394697
:101D10003046FEF768FEFFF79FFF6D1CEDB2082D01
:101D2000E4D3B8F1000F04D0FFF772FF2046BDE8FE
:101D3000F087FFF7B5FFF9E7000C01402DE9F0410E
:101D4000174E054600244FF480774FF4007828069C
:101D500001D5012200E0002241463046FEF743FE55
:101D6000FFF77AFF012239463046FEF73CFEFFF7C7
:101D700073FF002239463046FEF735FE072C04D1AA
:101D8000012241463046FEF72EFE6806050EFFF79B
:101D900063FF641CE4B2082CD9D3BDE8F0810000D5
:101DA000000C014070B501220E4D54022146284618
:101DB000FEF719FE0122160231462846FEF713FEF1
:101DC000FFF74AFF002221462846FEF70CFEFFF7E8
:101DD00043FF002231462846FEF705FEBDE870406D
:101DE000FFF73ABF000C014070B50B4D4FF4007483
:101DF000002221462846FEF7F6FD01221102284660
:101E0000FEF7F1FDFFF728FF21462846BDE87040A8
:101E10000122FEF7E8BD0000000C014070B5012270
:101E2000104D540221462846FEF7DDFDFFF714FF52
:101E30000122160231462846FEF7D5FDFFF70CFFBA
:101E400021462846FEF7C2FD08B1012400E0002427
:101E5000002231462846FEF7C6FDFFF7FDFE20466C
:101E600070BD0000000C014070B501224F49504880
:101E7000FFF720FE4FF47A742046FEF747FC4DA191
:101E80004F48FEF702FA494D6D1E08E0FEF7B6FB1B
:101E90002046FEF73BFC47A14948FEF7F6F968608B
:101EA0000028F3D047A000F08DFE2046FEF72EFC60
:101EB00046A14348FEF7E9F9686068B145A000F023
:101EC00081FE2046FEF722FC46A000F07BFE204665
:101ED000FEF71CFC47A117E049A000F073FEFEF7D7
:101EE0008DFB2046FEF712FCDCE749A000F06AFEFD
:101EF000FEF784FB2046FEF709FC49A000F062FED5
:101F00002046FEF703FC4AA12D48FEF7BEF96860A3
:101F10000028EAD0FEF772FB48A000F053FE2046EE
:101F2000FEF7F4FB48A000F04DFE4FF4FA660AE01D
:101F300049A000F047FEFEF761FB2046FEF7E6FBF6
:101F400041A000F03FFE3046FEF7E0FB46A11C48F2
:101F5000FEF79BF968600028EAD0FEF74FFB44A02B
:101F600000F030FE04E046A000F02CFEFEF746FB39
:101F70002046FEF7CBFB454800F024FE3046FEF736
:101F8000C5FB43A10E48FEF780F968600028EAD03F
:101F9000FEF734FB41A000F015FE2046FEF7B6FB2D
:101FA000BDE8704040A000F00DBE0000110100200F
:101FB000000400202B53494D205245414459000054
:101FC000901100204154490D0A0000004669626FDB
:101FD000636F6D00B0E6B1BED0C5CFA2D5FDC8B766
:101FE0000D0A000041542B4D495043414C4C3F0DCC
:101FF0000A0000002B4D495043414C4C3A3100003F
:10200000B2E9D1AFD0C5CFA2CAA7B0DC0D0A00009B
:10201000BBB9CEB4BBF1C8A1B5BD495000000000AA
:1020200041542B4D495043414C4C3D310D0A000069
:102030002B4D495043414C4C3A000000BBF1C8A124
:102040004950B3C9B9A6000041542B4754474953DE
:102050003D360D0A00000000BBF9D5BEB6A8CEBBC8
:10206000CAA7B0DC000000002B47544749533A0090
:10207000BBF9D5BEB6A8CEBBB3C9B9A60000000057
:10208000C1ACBDD3CAA7B0DC0000000008660008E0
:102090002B484D434F4E204F4B000000C1ACBDD3E9
:1020A000B3C9B9A60000000041542B475454533D16
:1020B000312C22B3F5CABCBBAFCDEAB3C9A3ACC1C6
:1020C000ACBDD3B3C9B9A6222C310D0A0000000063
:1020D00010B5FFF7C7FD80216B2000F0C0F8642029
:1020E000FEF714FB00216B2000F0B9F8032000F08C
:1020F00082F8002000F07AF8322000F099F80021F0
:10210000382000F0ACF800216A2000F0A8F8002187
:10211000232000F0A4F88021372000F0A0F87520DB
:1021200000F011F8682801D0012010BD01216B20BA
:1021300000F095F800216C2000F091F8322000F0BA
:1021400077F8002010BD10B50446FFF72BFED02015
:10215000FFF7F4FDFFF762FE2046FFF7EFFDFFF704
:102160005DFEFFF71FFED120FFF7E8FDFFF756FEEB
:102170000020FFF7B1FD0446FFF736FE204610BDF4
:102180002DE9F0411D4614460F460646FFF70AFEAC
:102190007006000EFFF7D2FDFFF740FE20B1FFF7FB
:1021A00023FE0120BDE8F0813846FFF7C7FDFFF7A9
:1021B00035FEFFF7F7FD012000EB4600C0B2FFF748
:1021C000BDFDFFF72BFE09E0012C0DD05FF00100F3
:1021D000FFF782FD641E05F8010BE4B2002CF3D179
:1021E000FFF702FE0020DDE70020F1E7C006010E48
:1021F0001C2000F034B8C006010E1B2000F02FB8E0
:10220000BC2801D3012110E0622801D302210CE097
:102210002A2801D3032108E0142801D3042104E073
:102220000A2801D3052100E006211A2000F017B882
:1022300010B504464FF47A70844201D9044602E096
:10224000042C00D20424B0FBF4F0401EC1B21920CB
:1022500000F005F86008BDE81040FFF7D1BF70B589
:102260000C460546FFF79EFDD020FFF767FDFFF700
:10227000D5FD50B92846FFF761FDFFF7CFFD204699
:10228000FFF75CFDFFF7CAFD18B1FFF7ADFD0120B8
:1022900070BDFFF7A9FD002070BD2DE9F0411E467D
:1022A00015460F460446FFF77DFD6006000EFFF75A
:1022B00045FDFFF7B3FD60B93846FFF73FFDFFF777
:1022C000ADFD00240CE0305DFFF738FDFFF7A6FD03
:1022D00020B1FFF789FD0120BDE8F081641CE4B264
:1022E000AC42F0D3FFF780FD0020F5E710B590B0C9
:1022F00011490120CDE90001002380220FA11248DD
:1023000003F0DAF91C22114902A8FDF79AFF002117
:1023100002A802F089FC084C0C49241F1C22E06032
:102320001C3109A8FDF78DFF002109A802F07CFCF3
:10233000206110B010BD0000500000205374617285
:10234000745F7461736B0000F9250008F45800088D
:102350002DE9F04186B0002532480095019502959F
:102360000395816941F010018161816901F01001DB
:102370000491816941F020018161816901F02001AE
:102380000491816941F004018161816901F00401D6
:102390000491816941F0080181618069224F00F058
:1023A00008000490002210213846FEF71CFBDFF8DD
:1023B0007C8000224FF463414046FEF714FB10205E
:1023C000012402268DE8710069463846FEF70EFAB0
:1023D000202000901648CDE9010569463846FEF7F1
:1023E00005FA4FF46040CDE90004CDE902466946A4
:1023F0004046FEF7FBF94FF4407000901120CDE904
:1024000001040320039069464046FEF7EFF90022DD
:1024100005211720FEF784FB1720FEF773FB06B09B
:10242000BDE8F0810010024000080140000C0140AE
:102430000000211030B58DB0002407940894099451
:102440000A940B941C2168460C94FDF713FF284D49
:10245000264828604FF4FA70C5E90104C820C5E990
:1024600003048020A8612846FEF74EFE08B1FEF75F
:10247000DBF84FF48050079007A91D48FEF7F7FEE0
:1024800008B1FEF7D1F81A48FFF764F808B1FEF773
:10249000CBF80B940BA916480C94FEF701FE08B17B
:1024A000FEF7C2F83020CDE900040294002269460C
:1024B0000F480494FFF724F808B1FEF7B5F8286830
:1024C000816941F008018161042269460848FFF7EB
:1024D00017F808B1FEF7A8F82868816941F400618F
:1024E00081610348FEF7E6FF0DB030BD00080040F3
:1024F000700300200C4810B50A4901604FF4E13127
:102500004160002181600C22C160C0E90412816138
:10251000C161FFF72FFA002803D0BDE81040FEF795
:1025200083B810BD00440040B80300200C4810B52B
:102530000A4901604FF4E1314160002181600C22C1
:10254000C160C0E904128161C161FFF713FA00287C
:1025500003D0BDE81040FEF767B810BD004800404A
:1025600000040020FEE70000064B4FF40051012854
:1025700005D0002805D100221846FEF734BA012202
:10258000FAE77047000C0140064B4FF40041012868
:1025900005D0002805D100221846FEF724BA0122F2
:1025A000FAE77047000C014000224FF480410148D7
:1025B000FEF719BA000C0140012291030148FEF711
:1025C00012BA0000000C014010B504460648FEF7A0
:1025D0003BFE0549C4F1C8000968C862BDE8104067
:1025E0000148FEF7DDBD000070030020FEE701207A
:1025F00002F00EFBFBE700001CB502F0ADFE08493F
:102600000320CDE900010023802206A1084803F041
:1026100053F8002002F03AFFBDE81C4002F0BCBEB7
:102620005400002054494D345F7461736B00000006
:10263000D926000810B5502080F31188BFF34F8FC2
:10264000BFF36F8F03F090F818B104494FF080503A
:102650000860002080F3118810BD000004ED00E048
:1026600030B58FB028216846FDF704FE14210AA872
:10267000FDF700FE01210804CDE9001000240294BA
:1026800002250491CDE90750C00009906846FEF785
:1026900075FB08B172B6FEE70F20CDE90A054FF4CD
:1026A0008060CDE90C4001210AA80E94FEF76AFA79
:1026B000002801D072B6FEE70FB030BD70470000B1
:1026C0000148FEF743BE0000480400200148FEF721
:1026D0003DBE0000700300204FF47A7400F032FD1C
:1026E000204602F0ADFEF9E7F0B50268164B174C34
:1026F000174D4FF08047984205D0B84203D0A04212
:1027000001D0A84203D122F070064A6832439842B1
:1027100005D0B84203D0A04201D0A84203D122F490
:102720004074CA6822434C6922F08002224302604E
:102730008A68C2620A688262984201D109690163AB
:1027400001214161F0BD0000002C01400004004067
:102750000008004010B501F01F030121046A9940F0
:102760008C430462016A9A401143016210BD10B5A6
:10277000846842EA032224F47F440A4322438260AD
:1027800010BD826822F070020A4342F007018160A6
:102790007047000030B5036A026A22F0010202624B
:1027A0004268846924F073050C682C4323F0020509
:1027B0008B682B430A4DA8420BD123F00805CB6848
:1027C00022F440722B434D6923F0040315438A69B8
:1027D0002A434260846149684163036230BD00005E
:1027E000002C014030B5026A036A23F01003036233
:1027F000436884690D6824F4E64444EA05248D683E
:1028000022F0200242EA05120B4DA8420ED1CD68FB
:1028100022F0800242EA05124D6923F4406343EA44
:1028200085038D6922F0400243EA85034360846199
:1028300049688163026230BD002C014030B5036AF3
:10284000026A22F4807202624268C46923F400734F
:1028500024F073050C682C438D6843EA05230C4D66
:10286000A8420ED1CD6823F4006343EA05234D69E5
:1028700022F4405242EA05128D6923F4806342EA51
:1028800005124260C4614968C163036230BD000043
:10289000002C014030B5046A026A22F480520262C0
:1028A0004268C3690D6823F4E64343EA05238D6853
:1028B00024F4005444EA0534064DA84204D14D697D
:1028C00022F4804242EA85124260C3614968016491
:1028D000046230BD002C014010B5036A046A24F084
:1028E00001040462846924F0F00444EA021423F031
:1028F0000A020A438461026210BD10B5036A046AC9
:1029000024F010040462846923F0A00324F47044CA
:1029100044EA023243EA01118261016210BD10B53E
:10292000406A0021C185C184FEF7ECFE10BD01683C
:102930000C3151E8002F22F4907241E80023002B63
:10294000F5D10168143151E8002F22F0010241E86D
:102950000023002BF5D1016B012909D101680C314D
:1029600051E8002F22F0100241E80023002BF5D19E
:10297000202180F8421000210163704708B590F8CB
:102980004210222901D0022008BD82684FF48053F2
:102990009A4201D1016921B1816A9A421BD04AB1A0
:1029A0000AE00268816A5268C2F308020A80816AFA
:1029B000891C08E0026972B10268526802F07F0265
:1029C0000A70816A491C8162C18D491E0904090C83
:1029D000C18503D01BE002685268F1E70168CA684C
:1029E00022F02002CA600168CA6822F48072CA60BC
:1029F00001684A6922F001024A61202180F84210F0
:102A000000214163026B012A03D0FFF761F8002027
:102A100008BD016301680C3151E8002F22F010025B
:102A200041E80023002BF5D101680A68D20602D5DF
:102A30000A6849680091818DFEF763FEE7E70000B0
:102A400070B5044600680169E26821F44051114301
:102A500001612169A0680843616908432168CA6867
:102A600041F20C639A430243CA6020684169A2693B
:102A700021F44071114341611E492068884202D10E
:102A8000FEF746F901E0FEF733F900EBC00101EB78
:102A90000012606864218000B2FBF0F3B3FBF1F335
:102AA0006FF018067343B2FBF0F5B2FBF0F605EBDE
:102AB0008305322303EB0515B5FBF1F5B6FBF1F603
:102AC00005F0F00505EB0615B2FBF0F6B2FBF0F0F1
:102AD000B0FBF1F06FF01802504306EB800003EBFF
:102AE0000010B0FBF1F0216800F00F00284488606E
:102AF00070BD00000038014081628285C2850021DE
:102B00004164222180F84210016921B10168CA683C
:102B100042F48072CA6001684A6942F001024A6167
:102B20000068C16841F02001C160002070472DE9B4
:102B3000F041984617460E460446069D27E0681C5D
:102B400025D02DB1FDF754FFA0EB0800A8421ED9F7
:102B500020680C3050E8001F21F4D07140E80012CA
:102B6000002AF5D12068143050E8001F21F001013F
:102B700040E80012002AF5D1202084F8410084F8B2
:102B80004200002084F840000320BDE8F081206866
:102B9000006836EA000004D00020B842CFD0002000
:102BA000F3E70120F9E700000148FEF7ADBD0000A2
:102BB000B80300200148FEF7A7BD00000004002074
:102BC000FEE700000FB4054B10B503A9044A0298B4
:102BD00000F042F810BC5DF814FB0000393A000820
:102BE000180100200FB47CB50C0009AD01D0611EA6
:102BF00000E00021CDE90001064B6A46294608980D
:102C000000F02AF8002C02D0009A002111707CBC40
:102C10005DF814FBAF3000080907090E002804DB3B
:102C200000F1E02080F80014704700F00F0000F180
:102C3000E02080F8141D704702E008C8121F08C188
:102C4000002AFAD170477047002001E001C1121F2D
:102C5000002AFBD1704700002DE9FF4F8DB00F46D1
:102C60000546002606E025280BD0DDE90F12904727
:102C70006D1C761C28780028F5D111B03046BDE8CF
:102C8000F08F0024A246A1460122E94900E0044356
:102C900015F8013F203B02FA03F00842F7D12878EB
:102CA0002A2810D06FF02F022878A0F130010929CE
:102CB00014D80AEB8A0102EB410144F0020400EB54
:102CC000010A6D1CF0E701CF5FEA000A03D544F466
:102CD0000054CAF1000A44F002046D1C28782E2822
:102CE00017D115F8010F44F004042A280ED06FF014
:102CF0002F022878A0F1300109290AD809EB8901AF
:102D000002EB410100EB01096D1CF2E757F8049B4F
:102D10006D1C28786C280FD006DC4C2817D068284A
:102D20000DD06A2814D104E0742810D07A280FD16D
:102D30000DE044F400140AE044F4801401E044F48B
:102D400040146978814202D104F580146D1C6D1C19
:102D500028786E281ED00CDC632830D004DC0028D4
:102D60008BD0582811D19FE0642867D069280CD1F6
:102D700064E073282DD004DC6F2872D0702804D151
:102D800094E075286ED078286DD0DDE90F12904759
:102D9000761C4BE1C4F30250022806D0032809D068
:102DA000042801CF09D0066040E101CFF117C0E946
:102DB00000613BE101CF068038E1067036E117F88B
:102DC000040B8DF8000000208DF80100EB46012077
:102DD00003E057F804BB4FF0FF3061074FF00001EC
:102DE00002D40DE008F10101884649450FDA80451B
:102DF000F8DB1BF808100029F4D108E008F1010104
:102E000088468142FADB1BF808100029F6D1DDE97B
:102E10000F23AAEB08008146214600F031F9304427
:102E200000EB080604E0DDE90F121BF8010B9047E8
:102E3000B8F10108F7D221464846F2E00A21C4F36E
:102E400002524FF0000B0891022A04D001CFC117A3
:102E5000032A09D00AE0FF1D27F00707F7E802015F
:102E600008E02CE01EE01FE000B2C117042A01D1E7
:102E700040B2C117021E71F1000206DA0023D0EB46
:102E8000030063EB01012D2202E0220504D52B2271
:102E90008DF82420012203E0E20701D02022F7E789
:102EA000904653E00A210BE0102109E010214FF079
:102EB000000B44F004044FF00809089103E00821D6
:102EC0004FF0000B0891C4F30252022A04D001CF44
:102ED0000021032A06D006E0FF1D27F00707F7E8C8
:102EE000020103E080B2042A00D1C0B24FF0000812
:102EF00022072BD52A78702A07D0DDF820C08CF065
:102F0000100C5CEA0B0C05D00EE040228DF824205A
:102F1000012208E050EA010306D030238DF8243066
:102F20008DF8252002229046089B83F0080353EA7F
:102F30000B030BD150EA010201D1620706D5302202
:102F40008DF824204FF00108A9F101092A78582AA8
:102F500004D038A20B9208AA0A920BE03AA2F9E731
:102F60005B46089AFDF7BFFA0B9B9B5C0A9A521EC0
:102F70000A92137050EA0102F2D10A98ADEB0000F8
:102F800000F1200B600702D524F4803401E04FF0FB
:102F90000109D94502DDA9EB0B0000E0002000EBA0
:102FA0000B0141440890AAEB010AE00306D4DDE9D5
:102FB0000F232146504600F063F806444FF0000905
:102FC00008E009A911F80900DDE90F12904709F19D
:102FD0000109761CC145F4DBE0030CD5DDE90F23C4
:102FE0002146504600F04CF8064404E0DDE90F129B
:102FF00030209047761C0899481E08900029F5DC7F
:1030000008E00A980A990078491C0A91DDE90F1234
:103010009047761CBBF10001ABF1010BF1DC2146BE
:103020005046DDE90F2300F019F806446D1C21E637
:10303000092801003031323334353637383961628E
:103040006364656600000000303132333435363752
:103050003839414243444546000000002DE9F04123
:10306000044600251E461746880404D405E0394668
:103070002020B0476D1C641EF9D52846BDE8F081BC
:103080002DE9F041044600251E469046C80301D5AF
:10309000302700E02027880404D505E04146384663
:1030A000B0476D1C641EF9D52846BDE8F0814A681A
:1030B000002A06D00A68531C0B6010704868401E36
:1030C000486070472DE9FE4F07460E4600256846CA
:1030D00000F0BEFC00246FF00F0AE8464FF0010933
:1030E00057F8240056F82410401A00D54042FDF746
:1030F000BFF95146FDF7B0F958F8241011F0FF4F11
:103100000BD0FDF76BF94FF07E51FDF72FF90A490F
:1031100020F00040884205DC07E0084908440849DF
:10312000884202D309FA04F00543641C032CD7DB60
:103130002846BDE8FE8F0000295C0F3E666666C12A
:103140009A99D9007FB51BA11C48FDF79EF800286D
:103150002AD01BA0FFF736FD1C4D0020012428605B
:1031600023461BA210216846FFF73CFD6946134821
:10317000FDF78BF818B1204601F09AFD02E0641CBF
:10318000092CEDDD286800280ED10124234614A265
:1031900010216846FFF726FD69460848FDF775F8D7
:1031A00018B1204601F06AFD7FBD641C092CEDDDDD
:1031B0007FBD00002B484D52454300009011002078
:1031C000B3C9B9A6BDD3CAD50A0000004C0000207F
:1031D00022776865656C5F6D6F76223A2564000022
:1031E0002261726D5F6D6F76223A256400000000E7
:1031F00070B50125124E0C4601280FD0022818D1B7
:103200001046FFF7C1F94FF004019CB10D48FEF7DD
:10321000CFF92046BDE87040FFF7D6B91046FFF75A
:10322000A3F94FF00001002CF0D10648FEF70EFA8A
:10323000356070BD0348FEF709FA756070BD000087
:103240000C0000207003002008B560B120208DF82C
:10325000000028208DF8010030208DF80200382071
:103260008DF8030004E0A32204216846FCF7FBFF6D
:103270006A46042140F69E2001F0A0FC01F05EF9B0
:1032800008BD00003EB5044602208DF80000CA20AB
:103290008DF80100E3208DF8020009208DF803006D
:1032A0006A460421682001F089FCA3208DF8000003
:1032B000610609D5C0218DF80110C8218DF80210D2
:1032C000C2218DF8031005E08DF801008DF8020091
:1032D0008DF8030014F4C07F09D0C4218DF80410C8
:1032E000CC218DF80510C6218DF8061005E08DF86B
:1032F00004008DF805008DF806008DF808008DF8A3
:1033000007008DF809006A460A2140F6A72001F05F
:1033100055FCA0074FF0D80503D020208DF8000001
:1033200001E08DF800506A46012140F6B62001F018
:1033300045FCA00601D5012000E0002000F08EF839
:1033400014F4C07F1ED0E0050AD5B2208DF800002D
:103350008B208DF80100B6208DF802009B2009E03B
:10336000B0208DF8000080208DF80100B4208DF889
:10337000020090208DF803006A46042140F6A22046
:1033800001F01CFCE1074FF40B6022D0F8218DF80E
:1033900000106A46012101F011FCFA21072000F01B
:1033A00097FA072000F062FA012000F07FFA64200B
:1033B00000F022FB4FF4FA7000F02EFBC8212548E4
:1033C00000F01CFA282000F031FA0A2000F03EFA42
:1033D00005E08DF800506A46012101F0EFFBA007DF
:1033E00003D5D9208DF8000001E08DF800506A4621
:1033F000012140F23D7001F0E1FB600701D50120A1
:1034000000E0002000F048F8E00601D5012000E0CF
:103410000020FFF719FF104D44F00800688101F00B
:103420008DF80020A873600601D50620A87314F457
:10343000C07F02D0A87B801DA87314F0140F02D0A7
:10344000A87B1030A873A00702D0A87B001DA8732A
:1034500000203EBD09E3CA02801100200EB54FF4E2
:10346000976310B106A107C901E008A207CA8DE859
:1034700007006A460921184601F0A0FB0EBD0000B6
:10348000B8AAB38DB4980D355D000000B8AAAAAAF9
:10349000B088C3C5C700000008B560B1C0208DF872
:1034A0000000C2208DF80100C4208DF80200C62063
:1034B0008DF8030004E08B2204216846FCF7D3FE5C
:1034C0006A46042140F6982001F078FB01F036F8B6
:1034D00008BD0000C8234FF48062024940F6F63070
:1034E00000F056BFA85900082DE9FF41044603A883
:1034F00000F004FEBDF80C00410CC3032F48008906
:1035000000F0030254F82250420700D56D42C0F388
:10351000C102860654F8222000D55242C0F381161B
:10352000C00554F8264000D56442A5FB0367E817A0
:1035300000FB037005FB0100850045EA9670A2FBC5
:103540000367D51705FB037502FB0152950045EA99
:103550009672A4FB0367E51705FB037304FB0131B7
:103560008B0043EA9671030E8DF80030030C8DF842
:103570000130030A8DF802308DF80300100E8DF82B
:103580000400100C8DF80500100A8DF80600080ED6
:103590008DF80800080C8DF80900080A8DF80A005B
:1035A0008DF807208DF80B106A460C214FF425701A
:1035B00001F004FB04B0BDE8F081000080110020A0
:1035C00030B5044613A285B007CA8DE807004FF056
:1035D000FF35C82C16D8C820B0FBF4F1491E080AE4
:1035E0008DF80C008DF80D1003AA022140F2162070
:1035F00001F0E4FA30B96A460C2140F6C12001F02E
:10360000DDFA10B1284605B030BD054884810020A0
:10361000F9E70000FEF2ABC4AAF1DFDFBBAFDFDFEA
:1036200080110020F8B53049098901F0030250F8F3
:1036300022404A0700D56442C1F3C1028B0650F80C
:10364000222000D55242C1F3811350F82330C8051F
:1036500000D55B42254984FB0140850045EA947012
:1036600082FB0142A40F44EA820483FB0121950FEF
:1036700045EA8105010E8DF80010010C8DF801104E
:10368000010A8DF802108DF803006A4604214FF4F8
:10369000747001F093FA4FF0FF3688B9200E8DF860
:1036A0000000200C8DF80100200A8DF802008DF832
:1036B00003406A4604214FF4757001F07FFA08B1A7
:1036C0003046F8BD280E8DF80000280C8DF801005A
:1036D000280A8DF802008DF803506A4604214FF441
:1036E000767001F06BFAF8BD8011002009E3CA0280
:1036F0002DE9FF4104463CA004F00303006802905A
:103700003AA0006803903AA006683AA0056802A8AB
:10371000C15C8DF80010C4F3C101425C8DF801203A
:10372000C4F38112805C8DF8020003A8C35C8DF89D
:103730000430415C8DF80510805C8DF806006A4607
:10374000032140F2264001F039FA4FF0FF37E0BB89
:1037500001AA032140F22A4001F030FAA8BBCDE9CA
:10376000006560070BD59DF8000040F001008DF862
:1037700000009DF8040040F001008DF80400A00650
:103780000BD59DF8010040F001008DF801009DF877
:10379000050040F001008DF80500E0050BD59DF80F
:1037A000020040F001008DF802009DF8060040F094
:1037B00001008DF806006A4603214FF4886001F08D
:1037C000FDF910B901AA032100E004E040F2314004
:1037D00001F0F4F918B1384604B0BDE8F0810648AC
:1037E00004810020F8E700004CCD6C000CC92C00CF
:1037F0003656760026466600801100204FF47A7215
:1038000090FBF2F008B54843010E8DF80010010C52
:103810008DF80110010A8DF802108DF803006A4638
:1038200004214FF4AE7001F0C9F908BD0521B0FBC9
:10383000F1F008B5010A8DF800108DF801006A4614
:1038400002214FF4AD7001F0B9F908BD0521B0FBBC
:10385000F1F008B5010A8DF800108DF801006A46F4
:1038600002214FF4AC7001F0A9F908BD08B50021A0
:103870008DF80010C10702D030218DF800108107AB
:1038800005D59DF8001041F00C018DF8001040079F
:1038900005D59DF8000040F003008DF800006A4651
:1038A00001214FF4A47001F089F908BD08B560B199
:1038B000042800D90420401E8DF800006A4601212A
:1038C00040F24F1001F07AF908BD0120F3E7000043
:1038D0002DE9FC41054640074FF0FF367CD0B1F59D
:1038E000C86F79D80846FCF7CCFD3E49FCF776FD59
:1038F000074601A800F0E4FB9DF80400022806D06A
:1039000004280DD008282ED0102865D134E00E21CF
:103910003846FCF7A1FDFCF7D2FD84B2324907E03E
:103920000D213846FCF798FDFCF7C9FD2F4984B2FC
:103930003846FCF721FDFCF7C2FD210A8DF8001086
:1039400080B28DF80140010A8DF802108DF8030055
:10395000E8076C4620D0224602214FF4EA7001F0BD
:103960002DF9C8BB11E00C213846FCF775FDFCF7BA
:10397000A6FD84B21E49DBE70B213846FCF76CFD3F
:10398000FCF79DFD84B21B49D2E7A21C02214FF433
:10399000927001F013F9F8B9A8070DD56A46022113
:1039A0004FF4EC7001F00AF9B0B9A21C02214FF4F7
:1039B000947001F003F978B9680710D56A460221BE
:1039C0004FF4EE7001F0FAF830B9A21C02214FF466
:1039D000967001F0F3F810B13046BDE8FC8100208C
:1039E000FBE7000000004843000040460000C045DF
:1039F000000040450000C0440521B0FBF1F008B5CF
:103A0000010A8DF800108DF801006A4602214FF47A
:103A1000EF7001F0D3F808BD0521B0FBF1F008B557
:103A2000010A8DF800108DF801006A4602214FF45A
:103A3000ED7001F0C3F808BD13B54FF6FF73012216
:103A400069460248FEF794F800981CBD0004002067
:103A50002DE9FE430646264801AB042240680D21AD
:103A60000078FEF78DFB10B10720BDE8FE839DF8BE
:103A700004101C2000EAD1029DF80710DFF87490B2
:103A8000C1F301131A438DF800209DF80520C1F3FE
:103A9000810300EAD2021A438DF801209DF8062026
:103AA00001F0030100EAD20008430024124F8DF810
:103AB0000200A0466D46285D10B146F824900AE049
:103AC00046F824800DE000BF56F824003946FCF784
:103AD00053FC46F82400285D401E10F0FF002855D6
:103AE000F2D1641CE4B2032CE5D30020BDE7000052
:103AF000D80000207B14AE3E1D5A843F2DE9FE4FB6
:103B000005460120C14E8DF800004FF000088DF8E9
:103B1000018030680C461746817C70686B46022233
:103B20000078FEF7BAFB4FF0FF3A00287AD1C820A0
:103B3000FCF7ECFD8DF8008030686B460122C17BFC
:103B400070680078FEF7A9FB0028EFD130686B465B
:103B50000122417970680078FEF79FFB0028E5D1CB
:103B600030686B460122817C70680078FEF795FB17
:103B70000028DBD130686B460122C17D7068007877
:103B8000FEF78BFB0028D1D130686B46012201790A
:103B900070680078FEF781FB0028C7D14FF00C0950
:103BA0008DF8009030686B460122017970680078CA
:103BB000FEF773FB002835D10F20FCF7A7FDB06A94
:103BC0006B460122407A8DF8000030688178706879
:103BD0000078FEF762FB002824D1B06A6B46012210
:103BE000007A8DF800003068417870680078FEF740
:103BF00054FB002873D1B06A807A0FB140F0E00026
:103C00008DF8000030686B46012281797068007879
:103C1000FEF743FB002862D12FB1B06AC07A40F0B2
:103C2000E00001E04AE018208DF8000030686B46A3
:103C30000122C17970680078FEF72FFBF0BB17B145
:103C4000C820FCF763FD40208DF8000030686B460B
:103C50000122017970680078FEF71FFB70BB7820A5
:103C60008DF8000030686B46012241797068007859
:103C7000FEF713FB10BB3220FCF748FD8DF80080E7
:103C8000306847466B464179706801220078FEF73C
:103C900004FB98B931687068B046897A00786B4641
:103CA0000222FEF76DFA48B9BDF80000AF6040BAD5
:103CB000B0FBF9F06F60C6B22F6000E00FE0A760C4
:103CC00067602760002739E0D8F80010D8F80400B2
:103CD0006B46C97A00780C22FEF752FA10B15046B2
:103CE000BDE8FE8FBDF80000236840BA00B2BDF801
:103CF0000210BDF804201844206049BA606809B277
:103D00000844606052BAA06812B21044A060BDF8C6
:103D100006002B6840BA01B2BDF80800BDF80A20C1
:103D20001944296040BA696800B20844686052BA10
:103D3000A86812B210447F1CFFB2A860B742C3D378
:103D400028688322C117090441EA104100040023B6
:103D5000FCF736FA32460023FCF732FA286068682E
:103D60008322C117090441EA104100040023FCF733
:103D700027FA32460023FCF723FA6860A8688322FA
:103D8000C117090441EA104100040023FCF718FAA6
:103D900032460023FCF714FAA86020684FF400654F
:103DA000C117090441EA104100042A460023FCF728
:103DB00007FA32460023FCF703FA206060682A46BF
:103DC000C117090441EA104100040023FCF7F8F987
:103DD00032460023FCF7F4F96060A0682A46C11758
:103DE000090441EA104100040023FCF7E9F93246D6
:103DF0000023FCF7E5F9A060002802DDA0F5803083
:103E000001E000F58030A060002069E7D8000020C4
:103E10002DE9F84F81462E488846002540686B46BC
:103E2000032200780D21FEF7ABF910B10720BDE8A1
:103E3000F88F9DF80000002400F01F008DF80000AE
:103E40009DF801006FF00F0B00F01F008DF80100CE
:103E50009DF802006E4600F01F008DF802004FF042
:103E6000010A00BF59F8241058F82400081A00D598
:103E70004042FCF7FDFA5946FCF7EEFA0746305D82
:103E8000C0B1144802E01449FCF776FA315D491ECE
:103E900011F0FF013155F6D101463846FCF79EFA84
:103EA0004FF07E51FCF762FA0C4920F00040884246
:103EB00005DC07E00A483844B0F1D97F02D90AFA94
:103EC00004F00543641C032CCCDB2846AFE700005C
:103ED000D80000200000C84154E3853F295C0F3E14
:103EE0000000E0BE00B5024600F00DF80346D01C0D
:103EF00000F009F843EAC003901D00F004F843EA1B
:103F0000801080B200BD90F90010002902DD4FF052
:103F10000000704702DA4FF00400704790F901107A
:103F2000002902DD4FF00100704702DA4FF0050072
:103F3000704790F90200002802DD4FF00200704740
:103F400002DA4FF0060070474FF00700704700009C
:103F5000FCF75CFDFEF784FBFEF7FAF9FEF76AFA60
:103F6000FEF7E4FAFEF7C6FAFDF77EFFFEF7B0F8BB
:103F700000F054F842F21074234618220C490D4800
:103F8000FDF7F6FD0C48FDF733F9094923461F22DA
:103F90001F390848FDF7ECFD4FF47A70FCF7B6FBCB
:103FA000FEF70AFBFEF7A2F900F039FEFEE700007B
:103FB0003300002000040020700300200146002090
:103FC000842900D0C81C70472DE9F041124C20F024
:103FD0000101002594F8240010B10020BDE8F08113
:103FE000A07A4FF0FF3668B10840277C20748842E1
:103FF00000D0354641B1012001F02EF900F09EFAC3
:1040000038B127743046E9E7207D00B1012001F086
:1040100023F92846E2E70000D800002010B5FDF79C
:1040200021FE00F0F1F808B10A2010BD782000F060
:1040300069FD10F0FF0F01D0012010BD7820FFF7BF
:10404000C3FF10F0FF0F01D0022010BD642000F06C
:1040500019FD10F0FF0F01D0032010BDFFF73AFA51
:1040600010F0FF0F01D0042010BD1448FFF73AFFF5
:10407000FFF73EFB10F0FF0F01D0052010BD40F20E
:104080007310FFF7FFF810F0FF0F01D0062010BDEE
:104090006420FFF795FA10F0FF0F01D0072010BD44
:1040A00001F09AF808B1082010BD012000F010FCC2
:1040B00010F0FF00F8D0092010BD0000040100201E
:1040C0000D494A7A42B1012A08D0022A0FD0032AA8
:1040D0000FD04FF0FF307047022200E00422027040
:1040E000C97C11B11106C90D01700020704708226A
:1040F000F5E71022F3E70000D80000200F494A7AC4
:1041000042B1012A09D0022A11D0032A12D04FF05D
:10411000FF3070474FF4804201E041F69C7202800C
:10412000C97C11B1C2F34E010180002070474FF4E9
:104130008052F4E74FF40062F1E70000D80000205D
:104140000B49097A39B1012907D002290AD003297C
:104150000BD0002103E0FA2101E04FF4FA71018055
:10416000002070474FF47A71F9E74FF4FA61F6E7EF
:10417000D80000200A49097A41B1012908D0022952
:104180000AD003290AD04FF0FF307047054900E0FC
:1041900005490160002070470449FAE70449F8E73F
:1041A000D800002000000343000083423333034261
:1041B000333383410C49C97A072913D2DFE801F070
:1041C0001204060A0C0E1000BC2100E062210180DE
:1041D000002070472A21FAE71421F8E70A21F6E7C0
:1041E0000521F4E70021F2E7D8000020054991F805
:1041F000242012B14FF0FF307047C98901800020A0
:1042000070470000D80000202DE9FC414C4C802074
:104210008DF8000020686B460122817C6068007880
:10422000FEF73BF84FF0FF37002832D16420FCF74F
:104230006DFA00258DF8005020686B460122817CC4
:1042400060680078FEF729F8002870D120686B4676
:104250000622817D60680078FDF792FF002866D114
:104260009DF805009DF80310C007400F01F0010103
:1042700040EA41019DF801004FF0010600F0010005
:10428000014309D0012905D0022915D02DA0FEF740
:1042900099FC4CE0E67410E020686B460122C1787E
:1042A00060680078FDF76CFF40BB9DF8000010F0DF
:1042B0000F0020D0042822D0E574FF2004F80A0F54
:1042C0004FF6FF7104F8020C04F8010C6070A18035
:1042D000A0712072A67026766576E572A572E560FB
:1042E00025616561A576E576A5834FF4FA6000F057
:1042F0002BFB18B907E01D48FEF764FC17E01CA073
:10430000FEF760FCC6E7022000F040FA78B92A20E8
:1043100000F082FB58B9322000F0B4FB38B900201D
:10432000FFF752FE18B9002000F064FA10B13846C9
:10433000BDE8FC81002000F0E5FB0020F8E700006C
:10434000D8000020556E737570706F7274656420AC
:10435000736F6674776172652070726F64756374D1
:10436000207265762025642E0A000000B8650008DA
:1043700048616C662073656E7369746976697479D7
:10438000207061727420666F756E642E0A000000E2
:104390002DE9FF4FDFF89480064685B098F8250098
:1043A00015460F464FF0FF39B0BBAFB3002420E0F5
:1043B000301B102800DD102080B283463A190146D8
:1043C0009246204600F0FAFB30BB6A46594620462A
:1043D00000F08AF800BB50465A466946FBF767FF73
:1043E00020B16FF0010009B0BDE8F08F04EB0B00C5
:1043F00084B2B442DCD3280A8DF810008DF8115035
:10440000D8F80000444604AB817ED8F804000222AC
:104410000078FDF742FF08B14846E4E7012084F840
:1044200025000898E0840020DDE70000D800002087
:104430002DE9F84305464FF0FF39282844D80727CF
:10444000284C00267DB1012000F0B4FA20208DF820
:1044500000004FF00108012D17D0052D18D88DF858
:10446000018005201FE0002000F0A4FA8DF8006014
:104470008DF8017020686B460222817C60680078AC
:10448000FDF70BFF00BB267529E08DF80160E8E71A
:10449000142D04D802208DF801000A2003E0032027
:1044A0008DF80100142000F0B7FA9DF801006B466A
:1044B00007EB80108DF8010020680222817C606883
:1044C0000078FDF7EAFE10B14846BDE8F883082001
:1044D000A072267384F814800020FFF775FD002079
:1044E000F3E70000D8000020F8B516000D464FF0A5
:1044F000FF371FD0104CA17AE1B1010A8DF80010EE
:10450000C0B28DF80100411960684289914211D80A
:10451000216800786B46097E0222FDF7BEFE48B98D
:104520002068EAB23346417D60680078FDF728FED6
:10453000002800D03846F8BDD8000020F8B5564C09
:104540004FF0FF36A07A00287DD000258DF800506E
:1045500020686B460122C17B60680078FDF79DFEF4
:10456000002870D120686B4601224179606800788C
:10457000FDF793FE002866D120686B460122017981
:1045800060680078FDF789FE00285CD194F824006B
:10459000E0B30C208DF8000020686B460122017901
:1045A00060680078FDF779FE002872D13220FCF7B0
:1045B000ADF8C0208DF80000A07AC00702D0E0203E
:1045C0008DF8000020686B46012201796068007850
:1045D000FDF763FE00285CD1607C18B102208DF8E5
:1045E000000001E08DF8005020686B460122C17B7D
:1045F00060680078FDF751FE28BB8DF800502068F8
:104600006B4601224179606800783EE0FFE70420B4
:104610008DF8000020686B460122017960680078FF
:10462000FDF73BFE78B9A07C90B9A07AC0070FD007
:104630005FF060008DF8000020686B460122017970
:104640006068007800E024E0FDF727FE08BB01E089
:104650004020EFE73220FCF759F8607C18B10120C8
:104660008DF8000001E08DF8005020686B460122B3
:10467000C17B60680078FDF710FE50B92068064BDA
:1046800001224179606810330078FDF706FE0028AA
:1046900000D03046F8BD0000D80000202DE9F047DA
:1046A000394C82468AB094F824000F4620B100208D
:1046B00000F00EF9012600E0002607A8FFF740FDF4
:1046C00006A8FFF7FDFC09A8FFF774FD08A8FFF78F
:1046D0008DFD94F80A9094F8108000250022394648
:1046E0005046FFF70BFA10B16D1C022DF6DB022DC0
:1046F0001AD00025012203A96846FFF7FFF910B17F
:104700006D1C022DF6DB022D0ED003A93846FEF7F4
:10471000D9FCC7B269465046FFF77AFB10F0FF0F8D
:104720004FF0000502D002E0002503E001250FB99B
:1047300045F00205FF2020726072E0724FF6FF71B3
:10474000E181A072207401202073BDF81C0000F0EC
:10475000FBF89DF8180000F019F8BDF8240000F0EF
:104760005BF9BDF8200000F08DF9484600F0CAF969
:104770004046FFF729FC16B1012000F0A9F80AB065
:104780002846BDE8F0870000D800002038B5184C56
:104790004FF0FF35A17A19B3022806D0042806D0BD
:1047A00008280ED010281BD10DE0002000E00820C2
:1047B0008DF80000607A9DF80010B0EBD10F04D0A6
:1047C00005E01020F4E71820F2E7002038BD20684B
:1047D0006B460122C17960680078FDF75EFD08B183
:1047E000284638BD9DF80000C0086072EDE7000063
:1047F000D8000020F8B5354C0546A07CA84201D170
:104800000020F8BD31484FF0FF366B46D0E900106C
:104810004FF001020979007835B3FDF7B1FC70BBA8
:104820009DF800006B4620F020008DF80000206805
:104830000122017960680078FDF72FFDF8B90320A7
:10484000FBF764FF02208DF8000094F8220078B393
:1048500082202BE020686B460122017D6068007891
:10486000FDF71BFD58B92EE0FDF78AFC38B9A07A98
:10487000C0079DF8000003D040F0200002E00CE0EB
:1048800020F020008DF8000020686B46012201799D
:1048900060680078FDF701FD08B13046F8BD0320DF
:1048A000FBF734FF94F8220000B180208DF800005F
:1048B00094F823000028CDD09DF8000040F030008F
:1048C0008DF80000C6E7A5749AE70000D800002024
:1048D00038B51C4C94F8241081421DD0002500B33B
:1048E00094F82500D0B1002000F0B6FC0020FFF7BE
:1048F00081FFE08C00F0C6F88DF8005060686B46D0
:10490000012200782321FDF7C8FC012084F824004F
:1049100000F0A2FCFFF712FE002038BD4FF0FF3080
:1049200038BD002000F098FC207C8DF80000606805
:104930006B46012200782321FDF7AFFC84F8245058
:10494000E8E70000D800002038B5194C4FF0FF35DB
:10495000A17A31B3FA2809D0B0F5FA7F08D0B0F5C2
:104960007A7F0FD0B0F5FA6F1BD10DE0002000E088
:1049700008208DF80000207A9DF80010B0EBD10FD0
:1049800004D005E01020F4E71820F2E7002038BD3D
:1049900020686B460122817960680078FDF77DFC14
:1049A00008B1284638BD9DF80000C0082072EDE728
:1049B000D800002038B5174C054694F82300A842CB
:1049C00001D1002038BD0DB1302000E000208DF86D
:1049D0000000A07C28B19DF8000040F002008DF896
:1049E000000094F8220028B19DF8000040F08000FB
:1049F0008DF8000020686B460122017D6068007818
:104A0000FDF74BFC10B14FF0FF3038BD84F8235058
:104A1000D7E70000D800002038B5194C4FF0FF351B
:104A2000A17A31B3BC2801D3012010E0622801D360
:104A300002200CE02A2801D3032008E0142801D327
:104A4000042004E00A2801D3052000E006208DF8A8
:104A50000000E07A9DF80010884201D1002038BDA6
:104A600020686B460122817860680078FDF715FCAC
:104A700008B1284638BD9DF80000E072EEE700005E
:104A8000D8000020F8B51E4D04464FF0FF37A87A35
:104A900048B395F8240030BB287D4FF47A7648B1AE
:104AA00064B1282C03D8E0B2FFF7C2FC26E0002056
:104AB000FFF7BEFC042C05D2042406E00020FFF71B
:104AC000B7FCF9E7B44200D93446B6FBF4F0401E17
:104AD0008DF8000028686B460122417868680078EC
:104AE000FDF7DBFB08B13846F8BD9DF80000401C1F
:104AF000B6FBF0F0E8814008FFF78EFF0020F8BD1C
:104B0000D8000020F8B5054610F0700F4FF00006F1
:104B100001D0012004E015B18DF8006002E04020D2
:104B20008DF80000244C6B4601222068817C60686F
:104B30000078FDF7B2FB4FF0FF3760BB9DF8000037
:104B400020F0400020738DF80060680602D4042035
:104B50008DF80000A80605D49DF8000040F0020082
:104B60008DF80000E80605D49DF8000040F0010033
:104B70008DF80000280705D49DF8000040F03800AB
:104B80008DF8000020686B460122C17C60680078C7
:104B9000FDF783FB10B1A6723846F8BD25B1082D8C
:104BA00002D00020FFF706FFA57226753220FBF722
:104BB000ADFD0020F8BD0000D8000020F8B51600BB
:104BC0000D464FF0FF371FD0104CA17AE1B1010A1A
:104BD0008DF80010C0B28DF801004119606842895B
:104BE000914211D8216800786B46097E0222FDF7B8
:104BF00054FB48B92068EAB23346417D60680078CA
:104C0000FDF74BFB002800D03846F8BDD800002047
:104C100010B500B9012000F013FC002010BD10B544
:104C200000F08AFC002010BD7FB50D4604464169A6
:104C3000B0F9080081B1A16971B1FFF7BFF9D4E9FA
:104C400005128DE80700D4E900102B46226900F018
:104C500060FD039004B070BDFFF7B0F903A9CDE982
:104C60000001208A2B4682B2D4E9001000F024FD16
:104C7000012801D00020EDE70398EBE738B50446A2
:104C8000014607A0FDF79EFF8DF800404FF6FF7329
:104C9000012269460548FCF76BFFFBF7AFFC38BD06
:104CA00061726D5F6D6F763D25640A00B803002068
:104CB000F8B50446014630A0FDF784FF32480125CF
:104CC0000560FBF79BFC314E4FF6FF770A2C12D2A2
:104CD000DFE804F011050F121B2326072C47FDF710
:104CE0006BFC01220A210120FEF782FA01220A212F
:104CF00009E0FDF759FCF8BD002250210120FEF724
:104D000077FA0022502102200DE001220A211046EC
:104D1000FEF76EFA01220021F5E701220021E2E709
:104D2000012228211046FEF763FAF8BD0122184936
:104D30001848FCF7BFFE01220A211046FEF758FA78
:104D400001220A210220FEF753FA09208DF8000003
:104D50003B46012269460F48FCF70AFF00203060FD
:104D6000F8BD0A2035608DF800003B4601226946F7
:104D70000848FCF7FDFEF8BD776865656C5F6D6FF0
:104D8000763D25640A0000004C00002064000020ED
:104D900060000020B80300202DE9F041184C0F46B8
:104DA000054666692068001D00F086FA38B920685B
:104DB00090F82C1001208840A1698143A161681CF2
:104DC00007D137B12168BDE8F0410E48091D00F058
:104DD000B7BA20683544B5424560216805D2A0685D
:104DE000BDE8F041091D00F093BA6068091D00F0AC
:104DF0008FFA206B854200D22563BDE8F081000068
:104E0000780000206C0500202DE9F041054600F0F7
:104E1000A3FA2E4C2069401C206120682C4F10B151
:104E2000E06940B32DE025602069012829D10026E2
:104E300006EB860007EB800000F05CFA761C072E7C
:104E4000F6D323488C3000F055FA2148A03000F00A
:104E500051FA1F48B43000F04DFA1D48C83000F038
:104E600049FA1B48DC3000F045FA19488C30606084
:104E70001430A06005E02068E96AC06A884200D862
:104E80002560E06A401CE062E96A0120A26988406E
:104E90001043A06101EB810007EB8000291D00F0A9
:104EA0004FFA00F079FAE06900280CD02068E96A2E
:104EB000C06A884207D207494FF080500860BFF3AC
:104EC0004F8FBFF36F8FBDE8F081000078000020A6
:104ED0009004002004ED00E010B5044690F8510065
:104EE00058B101280CD002280FD0502080F311882F
:104EF000BFF34F8FBFF36F8FFEE7206B00F060FAB8
:104F00002046BDE8104000F05BBA10BD10484FF4D9
:104F10004061420706D0C01D0D4920F00700411A2C
:104F2000C1F540610B4A00230144C2E9000308397E
:104F3000103A21F0070111604B600B600B1AC0E9B9
:104F4000001393604FF000405360D0607047000042
:104F500080050020C4000020144E154CA6F1C8079F
:104F60004FF08058DFF84C9012E000BF00F0F4F9E9
:104F7000F068C568281D00F09FF92069401E206177
:104F8000E068401EE06000F007FA2846FFF7A4FF43
:104F9000E0680028EAD138680128F9D9C9F800800A
:104FA000BFF34F8FBFF36F8FF2E70000580500206B
:104FB0007800002004ED00E02DE9F0479A46DDE995
:104FC000098481466FF00303206B03EB82021044D7
:104FD000089D20F00706700707D0502080F3118845
:104FE000BFF34F8FBFF36F8FFEE723180A5C83F880
:104FF00034200A5C12B1401C1028F6D3002784F834
:105000004370072D00D30625E562C4E91157201D22
:1050100000F07BF904F1180000F077F92461C5F184
:1050200007006462A061E76484F850705246494604
:10503000304600F0BFF82060B8F1000F01D0C8F88A
:105040000040BDE8F087000030B5114900E011468E
:105050000A688242FBD34B685C18844203D14068E3
:1050600018444860084643681C18944209D1084C0B
:10507000103C2468A24209D052681A4442600A686F
:1050800012680260814200D0086030BD0460F9E718
:10509000C400002006484168096829B14168C96810
:1050A000C9684968016370474FF0FF31FAE70000B3
:1050B0007800002008484068401C4FF0500080F302
:1050C000118804D0BFF34F8FBFF36F8FFEE7BFF39C
:1050D0004F8FBFF36F8FFEE7CC0000202DE9F0412A
:1050E0000546002700F05EFA314E306808B9FFF738
:1050F0000DFFF06805424BD1C5B3083568070ED0E7
:1051000005F00700C0F108000544680707D05020EB
:1051100080F31188BFF34F8FBFF36F8FFEE72DB37E
:105120007068854234D82248103001460C6801E08E
:1051300020460C466168A94202D221680029F7D1B5
:1051400031688C4224D007682168016060680837A4
:10515000411B10290FD96019420708D0502080F355
:105160001188BFF34F8FBFF36F8FFEE710E04160F0
:105170006560FFF769FF61687068401A7060B26827
:10518000904200D2B060F06801430020C4E9000101
:1051900000F04EFB780707D0502080F31188BFF352
:1051A0004F8FBFF36F8FFEE73846BDE8F0810000F8
:1051B000B400002010B5031F4FF080741C601B1F4B
:1051C00021F001011960191F024B0B60143940389E
:1051D0000A6010BDB550000810B588B0694604A833
:1051E000FFF75CFA032802D0012008B010BD07A821
:1051F000FEF7C0FF0498FBF73BF907990C46FBF755
:10520000BBF8FBF743F904900598FBF731F9214609
:10521000FBF7B2F8FBF73AF905900698FBF728F987
:105220002146FBF7A9F8FBF731F9069004A8FEF731
:10523000F9F903A8FEF762FFBDF80C00009941439D
:1052400000910199414301910299414368460291BD
:10525000FEF74AF90020C8E7F8B5144C014622468B
:1052600094F82460D2E9000200235D1E56B179B1A2
:10527000022111E0C17B10786B460122FDF70DF889
:1052800068B90EE0A67A56B111B1617C61B902E04D
:105290008DF80030EEE701218DF80010EAE728468E
:1052A000F8BD9DF8000060740020F8BDD800002013
:1052B0000120FFF7ADFCFBE7D0E9013201699A60FC
:1052C000D0E901235A604A68824201D182684A606B
:1052D000002202610868401E0860086870470000EC
:1052E000034B036003F15400086080201060704796
:1052F0001C01002000F108014FF0FF32C0E901124B
:10530000C1600161002101607047002101617047A7
:1053100030B50B685A1C02D000F1080202E00269A5
:1053200004E02246546825689D42FAD953684B60D0
:1053300099608A60516008610168491C016030BD54
:1053400042684A6093688B60936859609160086115
:105350000168491C01607047502080F31188BFF339
:105360004F8FBFF36F8F0A494868401C486001287F
:105370000CD10848006810F0FF0F07D0502080F3D0
:105380001188BFF34F8FBFF36F8FFEE770470000A8
:10539000CC00002004ED00E00849486828B1401E18
:1053A000486001D180F311887047502080F3118844
:1053B000BFF34F8FBFF36F8FFEE70000CC000020DC
:1053C00070B5002827D0144DA0F108046168E86882
:1053D000014207D1502080F31188BFF34F8FBFF3F4
:1053E0006F8FFEE722683AB1502080F31188BFF337
:1053F0004F8FBFF36F8FFEE78143616000F0D2F8FB
:1054000060686968084468602046FFF71DFEBDE8D3
:10541000704000F00DBA70BDB40000204FF0E020E5
:1054200000210161816105494FF47A720968B1FB7D
:10543000F2F1491E416107210161704774000020AB
:1054400010B5020014D00F48806B38B1502080F3A3
:105450001188BFF34F8FBFF36F8FFEE700F0A2F804
:1054600000211046FFF798FC00F0E2F9002807D170
:1054700005494FF080500860BFF34F8FBFF36F8F27
:1054800010BD00007800002004ED00E070B5054676
:10549000FFF762FF254C05B92568281DFFF70CFFB3
:1054A00058B9E86A224A00EB800152F8211021B96C
:1054B00001218140A0698843A061A86A18B105F163
:1054C0001800FFF7F9FEE06A401CE06220688542A0
:1054D00008D11748291DC830FFF732FFE068401C8B
:1054E000E06007E02069401E20612846FFF7F4FCD9
:1054F000FFF7D0FDFFF750FFE069002814D02068C7
:10550000854211D1A06B38B1502080F31188BFF3D0
:105510004F8FBFF36F8FFEE706494FF08050086052
:10552000BFF34F8FBFF36F8F70BD00007800002076
:105530009004002004ED00E010B586B00024039430
:1055400005AA04A903A80494FFF7CAFEDDE9030134
:105550000094CDE9011000230EA11048059A00F037
:10556000D8F80F490028486311D0502080F31188E3
:10557000BFF34F8FBFF36F8F4FF0FF3008630120F1
:10558000C8614C6106B0BDE8104000F041B806B0FB
:1055900010BD000049444C4500000000594F000870
:1055A000780000200248816B491C8163704700002D
:1055B000780000201448816B11B1012141627047CD
:1055C000002141628169B1FA81F1C1F11F0101EB52
:1055D00081020E4951F822306BB101EB820101F1D9
:1055E00008034A6852684A609A4201D152684A6088
:1055F000D16801607047502080F31188BFF34F8F4E
:10560000BFF36F8FFEE700007800002090040020B9
:105610001CB5264908780190FF20087008788DF89D
:1056200000009DF800009DF8002000F0F00090427E
:1056300007D0502080F31188BFF34F8FBFF36F8FD7
:10564000FEE79DF800001A4B00F05000187007208C
:10565000986005E09DF8002052008DF80020401E63
:105660009DF800201206F5D49860032807D050203A
:1056700080F31188BFF34F8FBFF36F8FFEE74FF4B6
:1056800040709860019808700A48016841F4700100
:105690000160016841F070410160FFF7BFFE00202A
:1056A0005860FAF741FD00201CBD000000E400E056
:1056B000CC00002020ED00E02DE9FF5F8346DDE90E
:1056C0000E87994616468A469000FFF707FD0500AB
:1056D0001CD05420FFF702FD040014D000202563E5
:1056E00084F85100CDE90240CDE900874B463246AF
:1056F00051465846FFF760FC2046FFF785FB012026
:1057000004B0BDE8F09F2846FFF75AFE4FF0FF3087
:10571000F6E7F0B585B0DDE90B640A9DA6B1DCB112
:10572000542700972663022684F85160002604AFB0
:10573000CDE90246CDE90057FFF73EFC2046FFF7D2
:1057400063FB049805B0F0BD502080F31188BFF3CF
:105750004F8FBFF36F8FFEE7502080F31188BFF3A8
:105760004F8FBFF36F8FFEE72DE9F0412E4C0027DE
:10577000A06B40B1206A401C2062606A00B1012722
:105780003846BDE8F0816669761C666113D16068B1
:10579000006838B1502080F31188BFF34F8FBFF3FA
:1057A0006F8FFEE76068A1686160A060A06A401C1E
:1057B000A062FFF76FFC206BDFF87080864209D390
:1057C0006068006880B16068C068C56868688642C3
:1057D0000DD220632068C06A00EB800158F82100D8
:1057E0000128CAD90127C8E74FF0FF30F1E7281D8B
:1057F000FFF762FDA86A18B105F11800FFF75CFD1C
:10580000E86A0121A26981401143A16100EB800196
:1058100008EB8100291DFFF793FDE86A2168C96A3A
:105820008842CDD30127CBE77800002090040020E8
:105830002DE9F0472C4D00242746A86B38B1FFF71F
:105840008BFDA86B401EA863A86B40B146E05020BA
:1058500080F31188BFF34F8FBFF36F8FFEE7296985
:10586000224E0120D1B3A6F1B40980463068E8B1D8
:10587000F068C46804F11800FFF71EFD201DFFF753
:105880001BFDE06AAA6908FA00F11143A96100EB67
:10589000800109EB8100211DFFF752FDE06A2968B4
:1058A000C96A8842E2D3C5F82480DFE70CB1FFF76C
:1058B000F1FB2C6A44B14646FFF756FF00B16E6219
:1058C000641EF9D100202862686A38B108490127AE
:1058D00038070860BFF34F8FBFF36F8FFFF75CFD92
:1058E0003846BDE8F087000078000020440500201D
:1058F00004ED00E0A0650008EF25000800000000AE
:105900000000000080000000000000000000000017
:10591000AC650008B1520008020000000000000061
:1059200080000000000000000000000001020203EF
:105930000405060708090A0B0C0D0E0F10100000D5
:10594000000000000000010203040607080900002F
:1059500000000102030475191A0C6A231B1C1F2086
:105960007274433B4138393A6B6C376F06246D6E65
:1059700070006800000476005401F7FD000100008B
:10598000830000000008000000010018320005003C
:10599000000020410000D242295C0F3E9A99993EB6
:1059A0003333733F295C0F3E000070000000002479
:1059B000000000020003000000650054FFEF00003B
:1059C000FA80000B12820001030C30C30E8C8CE9AC
:1059D00014D5400213710F8E3883F8833000F8839A
:1059E000258EF8833000F883FFFFFFFF0FFEA9D656
:1059F000240004001A8279A10000003CFFFF00008F
:105A00000010000038836FA2003E03304000000009
:105A100002CAE3093E8000002000000000000000F0
:105A20004000000060000000000C0000000C186E38
:105A3000000006920A16C0DFFFFF0256FD8CD377E6
:105A4000FFE1C496E0C5BEAA00000000FFFF0B2BDB
:105A500000001657000003594000000000001DFA26
:105A600000026C1D000000003FFFDFEB003EB3B6FC
:105A7000000D227800002F3C00000000001942B504
:105A8000000039A20000B365D90E9FC91DCF4C3468
:105A900030000000500000003BB67AE800640000CF
:105AA00000C8000000000000100000001000FA9282
:105AB0001000225E000D229F000100000032000055
:105AC000FF46000063D400001000000004D6000070
:105AD00004CC000004CC0000000010720000004064
